{
  "contractName": "DocumentStorage",
  "abi": [
    {
      "anonymous": false,
      "inputs": [
        {
          "indexed": false,
          "internalType": "string",
          "name": "hash",
          "type": "string"
        },
        {
          "indexed": false,
          "internalType": "uint256",
          "name": "timestamp",
          "type": "uint256"
        },
        {
          "indexed": false,
          "internalType": "address",
          "name": "owner",
          "type": "address"
        },
        {
          "indexed": false,
          "internalType": "uint256",
          "name": "version",
          "type": "uint256"
        }
      ],
      "name": "DocumentStored",
      "type": "event"
    },
    {
      "inputs": [
        {
          "internalType": "string",
          "name": "_hash",
          "type": "string"
        }
      ],
      "name": "storeDocument",
      "outputs": [],
      "stateMutability": "nonpayable",
      "type": "function"
    },
    {
      "inputs": [],
      "name": "getAllDocuments",
      "outputs": [
        {
          "components": [
            {
              "internalType": "string",
              "name": "hash",
              "type": "string"
            },
            {
              "internalType": "uint256",
              "name": "timestamp",
              "type": "uint256"
            },
            {
              "internalType": "address",
              "name": "owner",
              "type": "address"
            },
            {
              "internalType": "uint256",
              "name": "version",
              "type": "uint256"
            }
          ],
          "internalType": "struct DocumentStorage.Document[][]",
          "name": "",
          "type": "tuple[][]"
        }
      ],
      "stateMutability": "view",
      "type": "function",
      "constant": true
    },
    {
      "inputs": [
        {
          "internalType": "string",
          "name": "_hash",
          "type": "string"
        }
      ],
      "name": "getDocumentVersions",
      "outputs": [
        {
          "components": [
            {
              "internalType": "string",
              "name": "hash",
              "type": "string"
            },
            {
              "internalType": "uint256",
              "name": "timestamp",
              "type": "uint256"
            },
            {
              "internalType": "address",
              "name": "owner",
              "type": "address"
            },
            {
              "internalType": "uint256",
              "name": "version",
              "type": "uint256"
            }
          ],
          "internalType": "struct DocumentStorage.Document[]",
          "name": "",
          "type": "tuple[]"
        }
      ],
      "stateMutability": "view",
      "type": "function",
      "constant": true
    }
  ],
  "bytecode": "0x608060405234801561001057600080fd5b50610f27806100206000396000f3fe608060405234801561001057600080fd5b50600436106100415760003560e01c80639fa5f50b14610046578063b08b622b14610064578063b644f35014610094575b600080fd5b61004e6100b0565b60405161005b9190610b43565b60405180910390f35b61007e6004803603810190610079919061078c565b610351565b60405161008b9190610b65565b60405180910390f35b6100ae60048036038101906100a9919061078c565b6104ca565b005b6060600060018054905067ffffffffffffffff8111156100f9577f4e487b7100000000000000000000000000000000000000000000000000000000600052604160045260246000fd5b60405190808252806020026020018201604052801561012c57816020015b60608152602001906001900390816101175790505b50905060005b6001805490508110156103495760006001828154811061017b577f4e487b7100000000000000000000000000000000000000000000000000000000600052603260045260246000fd5b906000526020600020016040516101929190610b2c565b9081526020016040518091039020805480602002602001604051908101604052809291908181526020016000905b828210156102ee57838290600052602060002090600402016040518060800160405290816000820180546101f390610dd8565b80601f016020809104026020016040519081016040528092919081815260200182805461021f90610dd8565b801561026c5780601f106102415761010080835404028352916020019161026c565b820191906000526020600020905b81548152906001019060200180831161024f57829003601f168201915b50505050508152602001600182015481526020016002820160009054906101000a900473ffffffffffffffffffffffffffffffffffffffff1673ffffffffffffffffffffffffffffffffffffffff1673ffffffffffffffffffffffffffffffffffffffff168152602001600382015481525050815260200190600101906101c0565b5050505082828151811061032b577f4e487b7100000000000000000000000000000000000000000000000000000000600052603260045260246000fd5b6020026020010181905250808061034190610e0a565b915050610132565b508091505090565b60606000826040516103639190610b15565b9081526020016040518091039020805480602002602001604051908101604052809291908181526020016000905b828210156104bf57838290600052602060002090600402016040518060800160405290816000820180546103c490610dd8565b80601f01602080910402602001604051908101604052809291908181526020018280546103f090610dd8565b801561043d5780601f106104125761010080835404028352916020019161043d565b820191906000526020600020905b81548152906001019060200180831161042057829003601f168201915b50505050508152602001600182015481526020016002820160009054906101000a900473ffffffffffffffffffffffffffffffffffffffff1673ffffffffffffffffffffffffffffffffffffffff1673ffffffffffffffffffffffffffffffffffffffff16815260200160038201548152505081526020019060010190610391565b505050509050919050565b600060016000836040516104de9190610b15565b9081526020016040518091039020805490506104fa9190610d04565b9050600060405180608001604052808481526020014281526020013373ffffffffffffffffffffffffffffffffffffffff1681526020018381525090506000836040516105479190610b15565b9081526020016040518091039020819080600181540180825580915050600190039060005260206000209060040201600090919091909150600082015181600001908051906020019061059b929190610681565b506020820151816001015560408201518160020160006101000a81548173ffffffffffffffffffffffffffffffffffffffff021916908373ffffffffffffffffffffffffffffffffffffffff160217905550606082015181600301555050600182141561063f5760018390806001815401808255809150506001900390600052602060002001600090919091909150908051906020019061063d929190610681565b505b7f9b885d72d088e39d38f5d293a4b2409c23843cefad1d631546bb663eded0f7fd834233856040516106749493929190610b87565b60405180910390a1505050565b82805461068d90610dd8565b90600052602060002090601f0160209004810192826106af57600085556106f6565b82601f106106c857805160ff19168380011785556106f6565b828001600101855582156106f6579182015b828111156106f55782518255916020019190600101906106da565b5b5090506107039190610707565b5090565b5b80821115610720576000816000905550600101610708565b5090565b600061073761073284610c04565b610bd3565b90508281526020810184848401111561074f57600080fd5b61075a848285610d96565b509392505050565b600082601f83011261077357600080fd5b8135610783848260208601610724565b91505092915050565b60006020828403121561079e57600080fd5b600082013567ffffffffffffffff8111156107b857600080fd5b6107c484828501610762565b91505092915050565b60006107d98383610888565b905092915050565b60006107ed8383610a94565b905092915050565b6107fe81610d5a565b82525050565b61080d81610d5a565b82525050565b600061081e82610c69565b6108288185610ca4565b93508360208202850161083a85610c34565b8060005b85811015610876578484038952815161085785826107cd565b945061086283610c8a565b925060208a0199505060018101905061083e565b50829750879550505050505092915050565b600061089382610c74565b61089d8185610cb5565b9350836020820285016108af85610c44565b8060005b858110156108eb57848403895281516108cc85826107e1565b94506108d783610c97565b925060208a019950506001810190506108b3565b50829750879550505050505092915050565b600061090882610c74565b6109128185610cc6565b93508360208202850161092485610c44565b8060005b85811015610960578484038952815161094185826107e1565b945061094c83610c97565b925060208a01995050600181019050610928565b50829750879550505050505092915050565b600061097d82610c7f565b6109878185610cd7565b9350610997818560208601610da5565b6109a081610ee0565b840191505092915050565b60006109b682610c7f565b6109c08185610ce8565b93506109d0818560208601610da5565b6109d981610ee0565b840191505092915050565b60006109ef82610c7f565b6109f98185610cf9565b9350610a09818560208601610da5565b80840191505092915050565b60008154610a2281610dd8565b610a2c8186610cf9565b94506001821660008114610a475760018114610a5857610a8b565b60ff19831686528186019350610a8b565b610a6185610c54565b60005b83811015610a8357815481890152600182019150602081019050610a64565b838801955050505b50505092915050565b60006080830160008301518482036000860152610ab18282610972565b9150506020830151610ac66020860182610af7565b506040830151610ad960408601826107f5565b506060830151610aec6060860182610af7565b508091505092915050565b610b0081610d8c565b82525050565b610b0f81610d8c565b82525050565b6000610b2182846109e4565b915081905092915050565b6000610b388284610a15565b915081905092915050565b60006020820190508181036000830152610b5d8184610813565b905092915050565b60006020820190508181036000830152610b7f81846108fd565b905092915050565b60006080820190508181036000830152610ba181876109ab565b9050610bb06020830186610b06565b610bbd6040830185610804565b610bca6060830184610b06565b95945050505050565b6000604051905081810181811067ffffffffffffffff82111715610bfa57610bf9610eb1565b5b8060405250919050565b600067ffffffffffffffff821115610c1f57610c1e610eb1565b5b601f19601f8301169050602081019050919050565b6000819050602082019050919050565b6000819050602082019050919050565b60008190508160005260206000209050919050565b600081519050919050565b600081519050919050565b600081519050919050565b6000602082019050919050565b6000602082019050919050565b600082825260208201905092915050565b600082825260208201905092915050565b600082825260208201905092915050565b600082825260208201905092915050565b600082825260208201905092915050565b600081905092915050565b6000610d0f82610d8c565b9150610d1a83610d8c565b9250827fffffffffffffffffffffffffffffffffffffffffffffffffffffffffffffffff03821115610d4f57610d4e610e53565b5b828201905092915050565b6000610d6582610d6c565b9050919050565b600073ffffffffffffffffffffffffffffffffffffffff82169050919050565b6000819050919050565b82818337600083830152505050565b60005b83811015610dc3578082015181840152602081019050610da8565b83811115610dd2576000848401525b50505050565b60006002820490506001821680610df057607f821691505b60208210811415610e0457610e03610e82565b5b50919050565b6000610e1582610d8c565b91507fffffffffffffffffffffffffffffffffffffffffffffffffffffffffffffffff821415610e4857610e47610e53565b5b600182019050919050565b7f4e487b7100000000000000000000000000000000000000000000000000000000600052601160045260246000fd5b7f4e487b7100000000000000000000000000000000000000000000000000000000600052602260045260246000fd5b7f4e487b7100000000000000000000000000000000000000000000000000000000600052604160045260246000fd5b6000601f19601f830116905091905056fea264697066735822122086c33f105c46325f8a33a8d39e51acec060651ffaec253ef378f8c94443d21bc64736f6c63430008000033",
  "immutableReferences": {},
  "source": "contract DocumentStorage {\n    struct Document {\n        string hash;\n        uint256 timestamp;\n        address owner;\n        uint version;\n    }\n\n    mapping(string => Document[]) private documents;\n    string[] private documentHashes;\n\n    event DocumentStored(string hash, uint256 timestamp, address owner, uint version);\n\n    function storeDocument(string memory _hash) public {\n        uint newVersion = documents[_hash].length + 1;\n        Document memory newDoc = Document(_hash, block.timestamp, msg.sender, newVersion);\n        documents[_hash].push(newDoc);\n        // If it's the first version, add the hash to documentHashes\n        if(newVersion == 1) {\n            documentHashes.push(_hash);\n        }\n        emit DocumentStored(_hash, block.timestamp, msg.sender, newVersion);\n    }\n\n    function getAllDocuments() public view returns (Document[][] memory) {\n        Document[][] memory allDocs = new Document[][](documentHashes.length);\n        for (uint i = 0; i < documentHashes.length; i++) {\n            allDocs[i] = documents[documentHashes[i]];\n        }\n        return allDocs;\n    }\n\n    function getDocumentVersions(string memory _hash) public view returns (Document[] memory) {\n        return documents[_hash];\n    }\n\n}\n",
  "sourcePath": "/Users/dineshmurugesan/dev/evault/contracts/DocumentStorage.sol",
  "compiler": {
    "name": "solc",
    "version": "0.8.0+commit.c7dfd78e.Emscripten.clang"
  },
  "schemaVersion": "3.4.16",
  "updatedAt": "2024-07-14T05:03:04.067Z",
  "networkType": "ethereum",
  "devdoc": {
    "kind": "dev",
    "methods": {},
    "version": 1
  },
  "userdoc": {
    "kind": "user",
    "methods": {},
    "version": 1
  }
}